:020000040800F2
:1000000000040020E1010008E1020008E10200080C
:10001000E1020008E1020008E1020008E102000834
:10002000E1020008E1020008E102000811030008F3
:10003000E1020008E1020008E1020008D103000823
:10004000E1020008E1020008E1020008E102000804
:10005000E1020008E1020008E1020008E1020008F4
:10006000E1020008E1020008E1020008E1020008E4
:10007000E1020008E1020008E1020008E1020008D4
:10008000E1020008E1020008E1020008E1020008C4
:10009000E1020008E1020008E1020008E1020008B4
:1000A000E1020008E1020008E1020008E1020008A4
:1000B000E1020008E1020008E1020008E102000894
:1000C000E1020008E1020008E1020008E102000884
:1000D000E1020008E1020008E1020008E102000874
:1000E000E1020008E1020008E1020008E102000864
:1000F000E1020008E1020008E1020008E102000854
:10010000E1020008E1020008E1020008E102000843
:10011000E1020008E1020008E1020008E102000833
:10012000E1020008E1020008E1020008E102000823
:10013000E1020008E1020008E1020008E102000813
:10014000E1020008E1020008E1020008E102000803
:10015000E1020008E1020008E1020008E1020008F3
:10016000E1020008E1020008E1020008E1020008E3
:10017000E1020008E1020008E1020008E1020008D3
:08018000E1020008E1020008A1
:1001900008B500F04DFE00F073F9054C636983F477
:1001A000005363614FF4FA7000F08AFDF6E700BF78
:1001B00000080240AFF30080AFF30080AFF300808F
:1001C000704700BFAFF30080AFF30080AFF3008053
:1001D000FEE700BFAFF30080AFF30080AFF3008015
:1001E00072B6304880F30988022383F31488BFF382
:1001F0006F8F2D4B2D4A93420BD2D943114421F0DE
:10020000030119444FF05532043B43F8042F8B424D
:10021000FBD1274B83420CD226491A1D891A21F0A3
:10022000030119444FF05532043B43F8042F8B422D
:10023000FBD100F0A5FF2049204B99420BD2C843C7
:10024000184420F003001E4C04300023E258CA502A
:1002500004338342FAD11B4B1B4A93420AD2D9433F
:10026000114421F0030119440022043B43F8042FF8
:100270008B42FBD1154D164CFFF7A2FFAC4204D2C6
:1002800054F8043B9847AC42FAD3124D124CFFF796
:100290007FFFAC4204D254F8043B9847AC42FAD3F7
:1002A000FFF796FF00080020000000200004002057
:1002B000000400200308002000080020000800209F
:1002C000F014000800080020780D002088010008C4
:1002D000880100088801000888010008AFF3008049
:1002E000FEE700BFAFF30080AFF30080AFF3008004
:1002F00072B6FEE7AFF30080AFF30080AFF300808B
:1003000000F04EF900F014FC00F062F900DF00BFCD
:10031000EFF30983203383F30988002383F31188E3
:10032000704700BFAFF30080AFF30080AFF30080F1
:1003300008B5094B094A002199600720DA601021AD
:1003400000F076F80A20202100F072F80B208021BE
:10035000BDE8084000F06CB800ED00E00003FA05CD
:10036000202383F31188164B5B6813F400631AD0C3
:10037000EFF30983A3F1200282F3098811494FF0BA
:1003800080708A6943F8040C92F823000968926827
:10039000896858B1914294BF0022012262B10A4A91
:1003A00043F8082C704783F311887047914234BF9B
:1003B00000220122002AF2D1044A43F8082C704797
:1003C00000ED00E0340D0020010300080C030008DC
:1003D00008B500F055F9202383F3118800F018F9CF
:1003E00000F08EF800F02CF9002383F3118800F060
:1003F00067F9BDE80840FFF7B3BF00BFAFF3008067
:100400002DE9F04FC1F80CD0D0F80CD0BDE8F08F3A
:1004100008B500F0DDF8002383F311882846A047D3
:1004200000F08EFC08BD00BFAFF30080AFF300808A
:1004300020F0030303F1604303F56D4300F0030074
:1004400010B4C0009A69FF24844022EA040281406B
:100450000A439A615DF8044B704700BFAFF3008018
:10046000024B034A9B699A61FEE700BF340D0020EE
:10047000A0110008AFF30080AFF30080AFF300805D
:1004800000B583B0FFF754FF00F00AFA00F0A0F9BE
:1004900000F076FC00F0BCFC00F062F940210F484F
:1004A00000F056FB01210E4A0E4B80F82010C2616D
:1004B000986100F05DF8002383F3118862B6094B60
:1004C000094A9B6909489A6100230093C0210122CF
:1004D000074B00F0BDFB03B05DF804FB00080020F3
:1004E00000040020340D00202013000850080020D4
:1004F00061040008AFF30080AFF30080AFF3008029
:10050000F8B500F0FDF8174B9A6992F8233013B153
:10051000013B82F82330516A134B01315162DA6892
:100520001C6801329C42DA601AD0A768013FA760BC
:10053000B7B91E462268E568E76053601A6000F0AC
:100540007FF8002383F311882069A847202383F3D1
:10055000118800F05DF83468034BA268002AE9D0E6
:10056000F8BD00BF340D0020240D0020AFF3008043
:10057000054B1B6813B9054B1B6823B1044B054A97
:100580001A60FFF7B5BE7047100900201C0D00204F
:10059000200D0020C0110008AFF30080AFF30080F1
:1005A000074B1B6810B5074C0BB9236823B1064BEA
:1005B000064A1A60FFF79CFE0123236010BD00BFAE
:1005C000100900201C0D0020200D0020C81100087B
:1005D000094B1B6810B5094C2BB92368002B02DDB1
:1005E0000023236010BD064B064A1A60FFF780FE09
:1005F0000023236010BD00BF100900201C0D002047
:10060000200D0020D0110008AFF30080AFF3008070
:10061000074B1B68002B10B5064C01DD236823B186
:10062000054B064A1A60FFF763FE0123236010BDE5
:10063000100900201C0D0020200D0020D8110008FA
:10064000094B1B68002B10B5084C05DD2368002BF7
:1006500002DD0023236010BD054B064A1A60FFF738
:1006600047FE0023236010BD100900201C0D002050
:10067000200D0020E0110008AFF30080AFF30080F0
:1006800010B5202383F31188094C2368002B02DB6B
:10069000084A12682AB1084B084A1A60FFF728FE78
:1006A000236801332360002383F3118810BD00BF4A
:1006B000100900201C0D0020200D0020E81100086A
:1006C00010B5202383F31188094C2368002B02DD29
:1006D000084A12682AB1084B084A1A60FFF708FE58
:1006E0002368013B2360002383F3118810BD00BF02
:1006F000100900201C0D0020200D0020F011000822
:10070000064B1B68002B04DB054B1B68002B00DD30
:100710007047044B044A1A60FFF7EABD1009002035
:100720001C0D0020200D0020F8110008AFF3008000
:10073000064B1B6823B9064B1B68002B00DD704776
:10074000044B054A1A60FFF7D3BD00BF1009002013
:100750001C0D0020200D002000120008AFF30080C7
:10076000034A1346402143F8081B5360704700BFFB
:1007700014090020AFF30080AFF30080AFF30080D6
:100780000C4A0D495368896910B40C4CE4681C602C
:100790005960816A996090F820101973103302F53E
:1007A00081618B4228BF02F1080353605DF8044B5E
:1007B000704700BF14090020340D0020240D0020D4
:1007C000014B1860FFF794BD200D0020AFF30080AF
:1007D000044B4FF0FF3100225B601B609960DA60D0
:1007E000704700BF240D0020AFF30080AFF30080FE
:1007F000F8B505460C4616461F46FFF781FFCDB1FA
:10080000C6B1BCB10D492F610B68EE609A68944285
:1008100004D91B68A41A9A68A242FAD35A686A607B
:100820008B422B605D601560AC6002D09A68141B2F
:100830009C60F8BD0248FFF7C3FFE3E7240D0020EA
:1008400010120008AFF30080AFF30080AFF3008018
:1008500010B50446FFF754FF84B1E36893B12368F1
:100860000A4A934203D09968A2680A449A6062686F
:100870001360236800215A60E16010BD0448FFF74F
:100880009FFFEAE70348FFF79BFFE8E7240D0020FE
:100890002012000830120008AFF30080AFF3008090
:1008A000034B00225B601B605B611B619A607047B9
:1008B000340D0020AFF30080AFF30080AFF3008071
:1008C00010B50446FFF71CFF94F820308BB10E2BB7
:1008D0000FD00022A168094B84F820201B689A6879
:1008E0008A42FBD25A686260236020465C601460D2
:1008F00010BD0348FFF764FFEBE700BF340D002095
:1009000050120008AFF30080AFF30080AFF3008017
:1009100010B52023044683F31188FFF779FE94F87D
:1009200020300D2B11D8DFE803F016101007100B44
:10093000101010101010100BA36A9A6801329A6000
:1009400094E80C001A60226853604FF0FF33A362F2
:100950002046FFF7B5FFFFF773FE002383F31188EE
:1009600010BD00BFAFF30080AFF30080AFF3008095
:1009700070B5114C0646FFF7DBFE2368A5691A68BF
:1009800085F820601420012185F823005460284652
:1009900083F820102260A361FFF7F2FEEB69ADF14E
:1009A0002402934202D90548FFF70AFFA0692946AD
:1009B000BDE87040FFF724BD340D0020641200082C
:1009C00070B50C4686B00646FFF7B2FE631C12D027
:1009D0000D4D0E4AAB69214601A8FFF709FF3046CD
:1009E000FFF7C6FF049B13B101A8FFF731FFAB6906
:1009F000986A06B070BD044D3046FFF7B9FFAB6989
:100A0000986A06B070BD00BF340D002011090008BF
:100A100070B5164D04460E46FFF78AFEA869A36816
:100A20008268A662934213D9FFF74AFF0123064664
:100A300084F82030AC61FFF7A3FEF369ADF1240226
:100A400093420AD820463146BDE87040FFF7D8BC33
:100A50002046BDE87040FFF733BF0548FFF7B0FE02
:100A600020463146BDE87040FFF7CABC340D002077
:100A700064120008AFF30080AFF30080AFF3008092
:100A800070B5104C2368A5691A68226014210126EC
:100A90005460284683F8206085F82310A361FFF78F
:100AA0000FFF2846FFF76CFEEB69ADF1240293427D
:100AB00002D90548FFF784FEA0692946BDE87040C9
:100AC000FFF79EBC340D002064120008AFF30080D5
:100AD00070B5154E3268B5691368AC683360012093
:100AE00000215E6082F820001346B26185F8201074
:100AF00000E01B689A68A242FBD85A686A602B60C3
:100B000028465D601560FFF73BFEEB69ADF12402FE
:100B1000934202D90548FFF753FEB0692946BDE864
:100B20007040FFF76DBC00BF340D00206412000858
:100B3000044B9B6993F823300BB1FFF7C9BFFFF754
:100B40009FBF00BF340D0020AFF30080AFF30080E3
:100B50002DE9F007144C416465694561002200F1FC
:100B600030064FF0020A4FF014094FF0010800F16F
:100B70004C0700F12C0C0461816080F820A06061BA
:100B800080F8239080F8228080F821200264C263DC
:100B9000426282612861C76146630663C0F82CC067
:100BA000BDE8F007704700BF340D0020AFF30080B0
:100BB0002DE9F84F04460D4617469846FFF7A0FD6D
:100BC0000CB1AF2D36D81E48FFF7FAFD1D4EA5F12A
:100BD000240160187269E06044F801800A9941605C
:100BE00000254FF0020A4FF014094FF0010C16498E
:100BF000016204F1300304F12C0B04F14C0884F879
:100C000020A084F8215084F8239084F822C0A760A3
:100C100026616261676474612564E5636562A5614C
:100C200020461461C4F82CB063632363C4F81C80AD
:100C3000BDE8F88F7F2FC6D8B8F1000FC6D1C2E744
:100C400080120008340D002011040008AFF300806A
:100C50002DE9F04F83B080460C9F894693469A4613
:100C600000F14C050446FF2604F8016BA542FBD1B8
:100C700008EB0904A54204D2552605F8016BA542EC
:100C8000FBD1202383F31188FFF78AFC53465A4691
:100C9000494600974046FFF78BFF00210446FFF7C7
:100CA000B7FEFFF795FC002383F31188204603B0BD
:100CB000BDE8F08FAFF30080AFF30080AFF30080AA
:100CC00010B5044610B90948FFF77AFD202383F3D5
:100CD0001188FFF765FC21460620FFF771FEFFF73C
:100CE00077FC002383F3118810BD00BFC0120008F9
:100CF00038B5104B9C692546A06255F82C0FA842C8
:100D000006D00368E362FFF7DBFDE06AA842F8D192
:100D100094F821309B0704D1636922691A61226922
:100D200053610E20FFF724FE0348BDE83840FFF76B
:100D300047BD00BF340D0020D0120008AFF3008083
:100D400010B52023044683F31188FFF729FC2046C1
:100D5000BDE81040FFF7CCBFAFF30080AFF30080D9
:100D600010B5044620B1002364602460A36010BD68
:100D70000148FFF725FDF6E740130008AFF30080B8
:100D80000548064A0649074B20F0070022F00702F3
:100D900008601A60704700BF7F0D002000C001206E
:100DA000540D0020500D0020AFF30080AFF3008001
:100DB00010B50446FFF7A4FC074A08491368096800
:100DC000E01D20F00700C91A88429DBFC0181060BE
:100DD0001846002010BD00BF540D0020500D00200B
:100DE00010B52023044683F31188FFF7D9FB204672
:100DF000FFF7DEFF0446FFF7EBFB002383F31188C8
:100E0000204610BDAFF30080AFF30080AFF3008049
:100E1000044B054A1A6003F1100000229A60DA6060
:100E2000FFF79EBF580D0020E10D0008AFF30080D2
:100E300008B500F00DF8034800F0C2F8BDE808401E
:100E400000F0A6B9F0130008AFF30080AFF3008004
:100E5000204B21491A69DFF890C000224FF0FF3083
:100E60002DE9F00118611A615F6958615A611F6AC2
:100E70001A4E1B4D1B4C67F080571F621A620727E2
:100E8000D3F8248058625A62C1F804C08A600F60A7
:100E9000F16841F08071F160296841F00101296039
:100EA000196C41F080511964216841F4807121600E
:100EB000196F01F44071B1F5007F03D04FF4803118
:100EC00019671A67074B5A6822F400725A60BDE826
:100ED000F00170470038024010E000E0F0ED00E063
:100EE000001000E0007000403F900200AFF300806F
:100EF0002B492C4B4FF080504FF4404208641A604D
:100F00000B6843F001030B600B68254A9807FBD57B
:100F10001168002301F0F9011160114693608B689C
:100F20001F4A13F00C0FFAD1136843F48033136097
:100F300011460B681A4A9B03FBD5536F43F001031C
:100F4000536711464B6F164A9807FBD5164B5360F3
:100F50001368144943F0807313604B685A04FCD53E
:100F60000F490B680E4A9B01FBD5104B104991604D
:100F700040F205711960936843F0020393601146D3
:100F80008B68074A03F00C03082BF9D1536C43F428
:100F900080435364536E43F480435366704700BFED
:100FA00000380240007000400C544007003C0240F2
:100FB00000940838AFF30080AFF30080AFF30080F7
:100FC0002DE9F00FDFF8AC91DFF8AC81D9F830B043
:100FD000DFF8A8C1604F614E614D624C6249634ABF
:100FE00040F2FF1A4BEA0A0BC9F830B0D9F850B0FA
:100FF0004BEA0A0AC9F850A04368C8F8043083686D
:10100000C8F80830C368C8F80C300369C8F8143051
:101010004369C8F820308369C8F824300368C8F8E9
:101020000030036ACCF80430436ACCF80830836A95
:10103000CCF80C30C36ACCF81430036BCCF82030F9
:10104000436BCCF82430C369CCF80030C36B7B60B1
:10105000036CBB60436CFB60836C7B61C36C3B6265
:10106000036D7B62836B3B60876D7760C76DB76094
:10107000076EF760476E7761876E3762C76E77627B
:10108000476D3760466F6E60866FAE60C66FEE600C
:10109000D0F880606E61D0F884602E62D0F88860ED
:1010A0006E62066F2E60D0F890506560D0F8945054
:1010B000A560D0F89850E560D0F89C506561D0F8F4
:1010C000A0502562D0F8A4506562D0F88C502560FD
:1010D000D0F8AC404C60D0F8B0408C60D0F8B44050
:1010E000CC60D0F8B8404C61D0F8BC400C62D0F86D
:1010F000C0404C62D0F8A8400C60D0F8C8105160D5
:10110000D0F8CC109160D0F8D010D160D0F8D410C5
:101110005161D0F8D8101162D0F8DC105162D0F8CB
:10112000C4101160124BD0F8E4205A60D0F8E820C7
:101130009A60D0F8EC20DA60D0F8F0205A61D0F84C
:10114000F4201A62D0F8F8205A62D0F8E0201A6031
:10115000BDE8F00F704700BF00080240000C0240DD
:10116000001002400014024000180240001C02401F
:10117000002002400038024000000240000402400B
:10118000FFF7B6BEAFF30080AFF30080AFF300808F
:10119000704700BFAFF30080AFF30080AFF3008073
:1011A00069646C65000000000000000000000000A1
:1011B0005356233100000000535623320000000034
:1011C0005356233300000000535623340000000020
:1011D000535623350000000053562336000000000C
:1011E00053562337000000005356233800000000F8
:1011F00053562339000000005356233130000000BD
:1012000053562331310000000000000000000000B0
:10121000226368565453657449222829000000004F
:101220002263685654526573657449222829000068
:101230006368565452657365744928292C202331FC
:10124000000000000000000000000000000000009E
:10125000636853636852656164794928292C2023A7
:1012600031000000737461636B206F766572666C89
:101270006F77000000000000000000000000000088
:101280002263685468644372656174654922282941
:1012900000000000226368546864536574507269EA
:1012A0006F7269747922282900000000636854680D
:1012B00064526573756D6528292C20233100000068
:1012C000226368546864536C6565702228290000A5
:1012D0006368546864457869745328292C20233145
:1012E0000000000022636854686457616974222812
:1012F0002900000063685468645761697428292CC8
:101300002023310063685468645761697428292C6C
:101310002023320000000000000000000000000058
:101320006D61696E0016821104044C080C101418CB
:101330001C202122232400000000000000000000E7
:101340002263684D7478496E697422282900000070
:101350002263684D74784C6F636B53222829000018
:1013600063684D74784C6F636B5328292C202331AC
:101370000000000063684D74784C6F636B5328293C
:101380002C202332000000002263684D74785472D0
:10139000794C6F636B5322282900000063684D74F9
:1013A00078556E6C6F636B28292C20233100000068
:1013B00063684D7478556E6C6F636B28292C2023FD
:1013C0003200000063684D7478556E6C6F636B5328
:1013D00028292C202331000063684D7478556E6CE9
:1013E0006F636B5328292C2023320000000000007B
:1013F0002880A1AA00000000FFFFFFFF00150820C1
:10140000FFFF0000B00B00B000AA0A0081022AA270
:1014100000030000FFFFFFFF00544008FFFF000033
:101420000000000044050CCCA8AAAA060000000099
:10143000FFFFFFFF01000000FFFF0000B055BB8869
:10144000CCCC0C002000000000000000FFFFFFFFDC
:1014500045555555FFFF0000000C0000000000003E
:101460000000000000000000FFFFFFFF555555552C
:10147000FFFF00000000000000000000000000006E
:1014800000000000FFFFFFFF55551555FFFF00004E
:101490000000000000000000000090280000000094
:1014A000FFFFFFFF55550541FFFF00000000000052
:1014B00000B0B00B0000000000000000FFFFFFFFC5
:1014C00050555555FFFF00000000000000000000CF
:1014D0000000000000000000FFFFFFFF55555555BC
:0C14E000FFFF0000000000000000000002
:04000005080001E10D
:00000001FF
